{
	"data": {
		"bytecode": {
			"linkReferences": {},
			"object": "608060405234801561001057600080fd5b506103e860005567016345785d8a0000600155610168806100326000396000f3fe60806040526004361061003f5760003560e01c8063047fc9aa1461007e578063919840ad146100a557806395ae1988146100ba578063e3d670d7146100cf575b600154348161004a57fe5b3360009081526002602052604090208054929091049091019055600154348161006f57fe5b60008054929091049091039055005b34801561008a57600080fd5b50610093610102565b60408051918252519081900360200190f35b3480156100b157600080fd5b50610093610108565b3480156100c657600080fd5b5061009361011b565b3480156100db57600080fd5b50610093600480360360208110156100f257600080fd5b50356001600160a01b0316610121565b60005481565b3360009081526002602052604090205490565b60015481565b6002602052600090815260409020548156fea265627a7a723158209c55d05e664278100d5321e153e9ed830b0fb7f4c320d0e1cc7a372241f9530f64736f6c634300050c0032",
			"opcodes": "PUSH1 0x80 PUSH1 0x40 MSTORE CALLVALUE DUP1 ISZERO PUSH2 0x10 JUMPI PUSH1 0x0 DUP1 REVERT JUMPDEST POP PUSH2 0x3E8 PUSH1 0x0 SSTORE PUSH8 0x16345785D8A0000 PUSH1 0x1 SSTORE PUSH2 0x168 DUP1 PUSH2 0x32 PUSH1 0x0 CODECOPY PUSH1 0x0 RETURN INVALID PUSH1 0x80 PUSH1 0x40 MSTORE PUSH1 0x4 CALLDATASIZE LT PUSH2 0x3F JUMPI PUSH1 0x0 CALLDATALOAD PUSH1 0xE0 SHR DUP1 PUSH4 0x47FC9AA EQ PUSH2 0x7E JUMPI DUP1 PUSH4 0x919840AD EQ PUSH2 0xA5 JUMPI DUP1 PUSH4 0x95AE1988 EQ PUSH2 0xBA JUMPI DUP1 PUSH4 0xE3D670D7 EQ PUSH2 0xCF JUMPI JUMPDEST PUSH1 0x1 SLOAD CALLVALUE DUP2 PUSH2 0x4A JUMPI INVALID JUMPDEST CALLER PUSH1 0x0 SWAP1 DUP2 MSTORE PUSH1 0x2 PUSH1 0x20 MSTORE PUSH1 0x40 SWAP1 KECCAK256 DUP1 SLOAD SWAP3 SWAP1 SWAP2 DIV SWAP1 SWAP2 ADD SWAP1 SSTORE PUSH1 0x1 SLOAD CALLVALUE DUP2 PUSH2 0x6F JUMPI INVALID JUMPDEST PUSH1 0x0 DUP1 SLOAD SWAP3 SWAP1 SWAP2 DIV SWAP1 SWAP2 SUB SWAP1 SSTORE STOP JUMPDEST CALLVALUE DUP1 ISZERO PUSH2 0x8A JUMPI PUSH1 0x0 DUP1 REVERT JUMPDEST POP PUSH2 0x93 PUSH2 0x102 JUMP JUMPDEST PUSH1 0x40 DUP1 MLOAD SWAP2 DUP3 MSTORE MLOAD SWAP1 DUP2 SWAP1 SUB PUSH1 0x20 ADD SWAP1 RETURN JUMPDEST CALLVALUE DUP1 ISZERO PUSH2 0xB1 JUMPI PUSH1 0x0 DUP1 REVERT JUMPDEST POP PUSH2 0x93 PUSH2 0x108 JUMP JUMPDEST CALLVALUE DUP1 ISZERO PUSH2 0xC6 JUMPI PUSH1 0x0 DUP1 REVERT JUMPDEST POP PUSH2 0x93 PUSH2 0x11B JUMP JUMPDEST CALLVALUE DUP1 ISZERO PUSH2 0xDB JUMPI PUSH1 0x0 DUP1 REVERT JUMPDEST POP PUSH2 0x93 PUSH1 0x4 DUP1 CALLDATASIZE SUB PUSH1 0x20 DUP2 LT ISZERO PUSH2 0xF2 JUMPI PUSH1 0x0 DUP1 REVERT JUMPDEST POP CALLDATALOAD PUSH1 0x1 PUSH1 0x1 PUSH1 0xA0 SHL SUB AND PUSH2 0x121 JUMP JUMPDEST PUSH1 0x0 SLOAD DUP2 JUMP JUMPDEST CALLER PUSH1 0x0 SWAP1 DUP2 MSTORE PUSH1 0x2 PUSH1 0x20 MSTORE PUSH1 0x40 SWAP1 KECCAK256 SLOAD SWAP1 JUMP JUMPDEST PUSH1 0x1 SLOAD DUP2 JUMP JUMPDEST PUSH1 0x2 PUSH1 0x20 MSTORE PUSH1 0x0 SWAP1 DUP2 MSTORE PUSH1 0x40 SWAP1 KECCAK256 SLOAD DUP2 JUMP INVALID LOG2 PUSH6 0x627A7A723158 KECCAK256 SWAP13 SSTORE 0xd0 0x5e PUSH7 0x4278100D5321E1 MSTORE8 0xe9 0xed DUP4 SIGNEXTEND 0xf 0xb7 DELEGATECALL 0xc3 KECCAK256 0xd0 0xe1 0xcc PUSH27 0x372241F9530F64736F6C634300050C003200000000000000000000 "
		},
		"gasEstimates": {
			"creation": {
				"codeDepositCost": "72000",
				"executionCost": "40135",
				"totalCost": "112135"
			},
			"external": {
				"": "41116",
				"balance(address)": "568",
				"check()": "466",
				"pricePerEth()": "420",
				"supply()": "376"
			}
		},
		"methodIdentifiers": {
			"balance(address)": "e3d670d7",
			"check()": "919840ad",
			"pricePerEth()": "95ae1988",
			"supply()": "047fc9aa"
		}
	},
	"abi": [
		{
			"inputs": [],
			"payable": false,
			"stateMutability": "nonpayable",
			"type": "constructor"
		},
		{
			"payable": true,
			"stateMutability": "payable",
			"type": "fallback"
		},
		{
			"constant": true,
			"inputs": [
				{
					"internalType": "address",
					"name": "",
					"type": "address"
				}
			],
			"name": "balance",
			"outputs": [
				{
					"internalType": "uint256",
					"name": "",
					"type": "uint256"
				}
			],
			"payable": false,
			"stateMutability": "view",
			"type": "function"
		},
		{
			"constant": true,
			"inputs": [],
			"name": "check",
			"outputs": [
				{
					"internalType": "uint256",
					"name": "",
					"type": "uint256"
				}
			],
			"payable": false,
			"stateMutability": "view",
			"type": "function"
		},
		{
			"constant": true,
			"inputs": [],
			"name": "pricePerEth",
			"outputs": [
				{
					"internalType": "uint256",
					"name": "",
					"type": "uint256"
				}
			],
			"payable": false,
			"stateMutability": "view",
			"type": "function"
		},
		{
			"constant": true,
			"inputs": [],
			"name": "supply",
			"outputs": [
				{
					"internalType": "uint256",
					"name": "",
					"type": "uint256"
				}
			],
			"payable": false,
			"stateMutability": "view",
			"type": "function"
		}
	]
}