{
	"data": {
		"bytecode": {
			"linkReferences": {},
			"object": "608060405234801561001057600080fd5b506102fa806100206000396000f3fe608060405234801561001057600080fd5b506004361061009e5760003560e01c8063b54d264111610066578063b54d264114610140578063bf0096bc14610148578063dd6dce1114610150578063f39c595a14610158578063f8261827146101605761009e565b8063077aa705146100a35780632a4baf5014610120578063368981a614610128578063682105d3146101305780638230d02d14610138575b600080fd5b6100ab610168565b6040805160208082528351818301528351919283929083019185019080838360005b838110156100e55781810151838201526020016100cd565b50505050905090810190601f1680156101125780820380516001836020036101000a031916815260200191505b509250505060405180910390f35b6100ab610189565b6100ab6101a9565b6100ab6101c9565b6100ab6101f3565b6100ab610218565b6100ab610239565b6100ab61025a565b6100ab61027c565b6100ab6102a3565b6040518060400160405280600581526020016466756e647360d81b81525081565b604051806040016040528060048152602001636c696e6b60e01b81525081565b604051806040016040528060048152602001633637b0b760e11b81525081565b6040518060400160405280600e81526020016d6c6f616e5f70726f706f73616c7360901b81525081565b604051806040016040528060098152602001686c697175696469747960b81b81525081565b60405180604001604052806005815260200164626473636960d81b81525081565b604051806040016040528060058152602001646d6174696360d81b81525081565b6040518060400160405280600681526020016561636365737360d01b81525081565b6040518060400160405280600b81526020016a6c6f616e5f6c696d69747360a81b81525081565b60405180604001604052806006815260200165363a37b5b2b760d11b8152508156fea265627a7a72315820dec552e7466391b531c2d9a2720a78c8c0ce8cc11e9790cbe82d7459b5559d1864736f6c63430005110032",
			"opcodes": "PUSH1 0x80 PUSH1 0x40 MSTORE CALLVALUE DUP1 ISZERO PUSH2 0x10 JUMPI PUSH1 0x0 DUP1 REVERT JUMPDEST POP PUSH2 0x2FA DUP1 PUSH2 0x20 PUSH1 0x0 CODECOPY PUSH1 0x0 RETURN INVALID PUSH1 0x80 PUSH1 0x40 MSTORE CALLVALUE DUP1 ISZERO PUSH2 0x10 JUMPI PUSH1 0x0 DUP1 REVERT JUMPDEST POP PUSH1 0x4 CALLDATASIZE LT PUSH2 0x9E JUMPI PUSH1 0x0 CALLDATALOAD PUSH1 0xE0 SHR DUP1 PUSH4 0xB54D2641 GT PUSH2 0x66 JUMPI DUP1 PUSH4 0xB54D2641 EQ PUSH2 0x140 JUMPI DUP1 PUSH4 0xBF0096BC EQ PUSH2 0x148 JUMPI DUP1 PUSH4 0xDD6DCE11 EQ PUSH2 0x150 JUMPI DUP1 PUSH4 0xF39C595A EQ PUSH2 0x158 JUMPI DUP1 PUSH4 0xF8261827 EQ PUSH2 0x160 JUMPI PUSH2 0x9E JUMP JUMPDEST DUP1 PUSH4 0x77AA705 EQ PUSH2 0xA3 JUMPI DUP1 PUSH4 0x2A4BAF50 EQ PUSH2 0x120 JUMPI DUP1 PUSH4 0x368981A6 EQ PUSH2 0x128 JUMPI DUP1 PUSH4 0x682105D3 EQ PUSH2 0x130 JUMPI DUP1 PUSH4 0x8230D02D EQ PUSH2 0x138 JUMPI JUMPDEST PUSH1 0x0 DUP1 REVERT JUMPDEST PUSH2 0xAB PUSH2 0x168 JUMP JUMPDEST PUSH1 0x40 DUP1 MLOAD PUSH1 0x20 DUP1 DUP3 MSTORE DUP4 MLOAD DUP2 DUP4 ADD MSTORE DUP4 MLOAD SWAP2 SWAP3 DUP4 SWAP3 SWAP1 DUP4 ADD SWAP2 DUP6 ADD SWAP1 DUP1 DUP4 DUP4 PUSH1 0x0 JUMPDEST DUP4 DUP2 LT ISZERO PUSH2 0xE5 JUMPI DUP2 DUP2 ADD MLOAD DUP4 DUP3 ADD MSTORE PUSH1 0x20 ADD PUSH2 0xCD JUMP JUMPDEST POP POP POP POP SWAP1 POP SWAP1 DUP2 ADD SWAP1 PUSH1 0x1F AND DUP1 ISZERO PUSH2 0x112 JUMPI DUP1 DUP3 SUB DUP1 MLOAD PUSH1 0x1 DUP4 PUSH1 0x20 SUB PUSH2 0x100 EXP SUB NOT AND DUP2 MSTORE PUSH1 0x20 ADD SWAP2 POP JUMPDEST POP SWAP3 POP POP POP PUSH1 0x40 MLOAD DUP1 SWAP2 SUB SWAP1 RETURN JUMPDEST PUSH2 0xAB PUSH2 0x189 JUMP JUMPDEST PUSH2 0xAB PUSH2 0x1A9 JUMP JUMPDEST PUSH2 0xAB PUSH2 0x1C9 JUMP JUMPDEST PUSH2 0xAB PUSH2 0x1F3 JUMP JUMPDEST PUSH2 0xAB PUSH2 0x218 JUMP JUMPDEST PUSH2 0xAB PUSH2 0x239 JUMP JUMPDEST PUSH2 0xAB PUSH2 0x25A JUMP JUMPDEST PUSH2 0xAB PUSH2 0x27C JUMP JUMPDEST PUSH2 0xAB PUSH2 0x2A3 JUMP JUMPDEST PUSH1 0x40 MLOAD DUP1 PUSH1 0x40 ADD PUSH1 0x40 MSTORE DUP1 PUSH1 0x5 DUP2 MSTORE PUSH1 0x20 ADD PUSH5 0x66756E6473 PUSH1 0xD8 SHL DUP2 MSTORE POP DUP2 JUMP JUMPDEST PUSH1 0x40 MLOAD DUP1 PUSH1 0x40 ADD PUSH1 0x40 MSTORE DUP1 PUSH1 0x4 DUP2 MSTORE PUSH1 0x20 ADD PUSH4 0x6C696E6B PUSH1 0xE0 SHL DUP2 MSTORE POP DUP2 JUMP JUMPDEST PUSH1 0x40 MLOAD DUP1 PUSH1 0x40 ADD PUSH1 0x40 MSTORE DUP1 PUSH1 0x4 DUP2 MSTORE PUSH1 0x20 ADD PUSH4 0x3637B0B7 PUSH1 0xE1 SHL DUP2 MSTORE POP DUP2 JUMP JUMPDEST PUSH1 0x40 MLOAD DUP1 PUSH1 0x40 ADD PUSH1 0x40 MSTORE DUP1 PUSH1 0xE DUP2 MSTORE PUSH1 0x20 ADD PUSH14 0x6C6F616E5F70726F706F73616C73 PUSH1 0x90 SHL DUP2 MSTORE POP DUP2 JUMP JUMPDEST PUSH1 0x40 MLOAD DUP1 PUSH1 0x40 ADD PUSH1 0x40 MSTORE DUP1 PUSH1 0x9 DUP2 MSTORE PUSH1 0x20 ADD PUSH9 0x6C6971756964697479 PUSH1 0xB8 SHL DUP2 MSTORE POP DUP2 JUMP JUMPDEST PUSH1 0x40 MLOAD DUP1 PUSH1 0x40 ADD PUSH1 0x40 MSTORE DUP1 PUSH1 0x5 DUP2 MSTORE PUSH1 0x20 ADD PUSH5 0x6264736369 PUSH1 0xD8 SHL DUP2 MSTORE POP DUP2 JUMP JUMPDEST PUSH1 0x40 MLOAD DUP1 PUSH1 0x40 ADD PUSH1 0x40 MSTORE DUP1 PUSH1 0x5 DUP2 MSTORE PUSH1 0x20 ADD PUSH5 0x6D61746963 PUSH1 0xD8 SHL DUP2 MSTORE POP DUP2 JUMP JUMPDEST PUSH1 0x40 MLOAD DUP1 PUSH1 0x40 ADD PUSH1 0x40 MSTORE DUP1 PUSH1 0x6 DUP2 MSTORE PUSH1 0x20 ADD PUSH6 0x616363657373 PUSH1 0xD0 SHL DUP2 MSTORE POP DUP2 JUMP JUMPDEST PUSH1 0x40 MLOAD DUP1 PUSH1 0x40 ADD PUSH1 0x40 MSTORE DUP1 PUSH1 0xB DUP2 MSTORE PUSH1 0x20 ADD PUSH11 0x6C6F616E5F6C696D697473 PUSH1 0xA8 SHL DUP2 MSTORE POP DUP2 JUMP JUMPDEST PUSH1 0x40 MLOAD DUP1 PUSH1 0x40 ADD PUSH1 0x40 MSTORE DUP1 PUSH1 0x6 DUP2 MSTORE PUSH1 0x20 ADD PUSH6 0x363A37B5B2B7 PUSH1 0xD1 SHL DUP2 MSTORE POP DUP2 JUMP INVALID LOG2 PUSH6 0x627A7A723158 KECCAK256 0xDE 0xC5 MSTORE 0xE7 CHAINID PUSH4 0x91B531C2 0xD9 LOG2 PUSH19 0xA78C8C0CE8CC11E9790CBE82D7459B5559D18 PUSH5 0x736F6C6343 STOP SDIV GT STOP ORIGIN "
		},
		"gasEstimates": {
			"creation": {
				"codeDepositCost": "152400",
				"executionCost": "196",
				"totalCost": "152596"
			},
			"external": {
				"MODULE_ACCESS()": "infinite",
				"MODULE_BDSCI()": "infinite",
				"MODULE_FUNDS()": "infinite",
				"MODULE_LINK()": "infinite",
				"MODULE_LIQUIDITY()": "infinite",
				"MODULE_LOAN()": "infinite",
				"MODULE_LOAN_LIMTS()": "infinite",
				"MODULE_LOAN_PROPOSALS()": "infinite",
				"MODULE_LTOKEN()": "infinite",
				"MODULE_MATIC()": "infinite"
			}
		},
		"methodIdentifiers": {
			"MODULE_ACCESS()": "dd6dce11",
			"MODULE_BDSCI()": "b54d2641",
			"MODULE_FUNDS()": "077aa705",
			"MODULE_LINK()": "2a4baf50",
			"MODULE_LIQUIDITY()": "8230d02d",
			"MODULE_LOAN()": "368981a6",
			"MODULE_LOAN_LIMTS()": "f39c595a",
			"MODULE_LOAN_PROPOSALS()": "682105d3",
			"MODULE_LTOKEN()": "f8261827",
			"MODULE_MATIC()": "bf0096bc"
		}
	},
	"abi": [
		{
			"constant": true,
			"inputs": [],
			"name": "MODULE_ACCESS",
			"outputs": [
				{
					"internalType": "string",
					"name": "",
					"type": "string"
				}
			],
			"payable": false,
			"stateMutability": "view",
			"type": "function"
		},
		{
			"constant": true,
			"inputs": [],
			"name": "MODULE_BDSCI",
			"outputs": [
				{
					"internalType": "string",
					"name": "",
					"type": "string"
				}
			],
			"payable": false,
			"stateMutability": "view",
			"type": "function"
		},
		{
			"constant": true,
			"inputs": [],
			"name": "MODULE_FUNDS",
			"outputs": [
				{
					"internalType": "string",
					"name": "",
					"type": "string"
				}
			],
			"payable": false,
			"stateMutability": "view",
			"type": "function"
		},
		{
			"constant": true,
			"inputs": [],
			"name": "MODULE_LINK",
			"outputs": [
				{
					"internalType": "string",
					"name": "",
					"type": "string"
				}
			],
			"payable": false,
			"stateMutability": "view",
			"type": "function"
		},
		{
			"constant": true,
			"inputs": [],
			"name": "MODULE_LIQUIDITY",
			"outputs": [
				{
					"internalType": "string",
					"name": "",
					"type": "string"
				}
			],
			"payable": false,
			"stateMutability": "view",
			"type": "function"
		},
		{
			"constant": true,
			"inputs": [],
			"name": "MODULE_LOAN",
			"outputs": [
				{
					"internalType": "string",
					"name": "",
					"type": "string"
				}
			],
			"payable": false,
			"stateMutability": "view",
			"type": "function"
		},
		{
			"constant": true,
			"inputs": [],
			"name": "MODULE_LOAN_LIMTS",
			"outputs": [
				{
					"internalType": "string",
					"name": "",
					"type": "string"
				}
			],
			"payable": false,
			"stateMutability": "view",
			"type": "function"
		},
		{
			"constant": true,
			"inputs": [],
			"name": "MODULE_LOAN_PROPOSALS",
			"outputs": [
				{
					"internalType": "string",
					"name": "",
					"type": "string"
				}
			],
			"payable": false,
			"stateMutability": "view",
			"type": "function"
		},
		{
			"constant": true,
			"inputs": [],
			"name": "MODULE_LTOKEN",
			"outputs": [
				{
					"internalType": "string",
					"name": "",
					"type": "string"
				}
			],
			"payable": false,
			"stateMutability": "view",
			"type": "function"
		},
		{
			"constant": true,
			"inputs": [],
			"name": "MODULE_MATIC",
			"outputs": [
				{
					"internalType": "string",
					"name": "",
					"type": "string"
				}
			],
			"payable": false,
			"stateMutability": "view",
			"type": "function"
		}
	]
}